{
	"data": {
		"bytecode": {
			"linkReferences": {},
			"object": "6080604052348015600f57600080fd5b5060818061001e6000396000f3fe6080604052348015600f57600080fd5b506004361060325760003560e01c80633ccfd60b146037578063b60d428814603f575b600080fd5b603d6047565b005b60456049565b005b565b56fea264697066735822122014ba6cf7dcedf74446c6379fbc328d336f9f08f2714851d1b56e813edbcbdb6964736f6c63430008120033",
			"opcodes": "PUSH1 0x80 PUSH1 0x40 MSTORE CALLVALUE DUP1 ISZERO PUSH1 0xF JUMPI PUSH1 0x0 DUP1 REVERT JUMPDEST POP PUSH1 0x81 DUP1 PUSH2 0x1E PUSH1 0x0 CODECOPY PUSH1 0x0 RETURN INVALID PUSH1 0x80 PUSH1 0x40 MSTORE CALLVALUE DUP1 ISZERO PUSH1 0xF JUMPI PUSH1 0x0 DUP1 REVERT JUMPDEST POP PUSH1 0x4 CALLDATASIZE LT PUSH1 0x32 JUMPI PUSH1 0x0 CALLDATALOAD PUSH1 0xE0 SHR DUP1 PUSH4 0x3CCFD60B EQ PUSH1 0x37 JUMPI DUP1 PUSH4 0xB60D4288 EQ PUSH1 0x3F JUMPI JUMPDEST PUSH1 0x0 DUP1 REVERT JUMPDEST PUSH1 0x3D PUSH1 0x47 JUMP JUMPDEST STOP JUMPDEST PUSH1 0x45 PUSH1 0x49 JUMP JUMPDEST STOP JUMPDEST JUMP JUMPDEST JUMP INVALID LOG2 PUSH5 0x6970667358 0x22 SLT KECCAK256 EQ 0xBA PUSH13 0xF7DCEDF74446C6379FBC328D33 PUSH16 0x9F08F2714851D1B56E813EDBCBDB6964 PUSH20 0x6F6C634300081200330000000000000000000000 "
		},
		"gasEstimates": {
			"creation": {
				"codeDepositCost": "25800",
				"executionCost": "81",
				"totalCost": "25881"
			},
			"external": {
				"fund()": "144",
				"withdraw()": "122"
			}
		},
		"methodIdentifiers": {
			"fund()": "b60d4288",
			"withdraw()": "3ccfd60b"
		}
	},
	"abi": [
		{
			"inputs": [],
			"name": "fund",
			"outputs": [],
			"stateMutability": "nonpayable",
			"type": "function"
		},
		{
			"inputs": [],
			"name": "withdraw",
			"outputs": [],
			"stateMutability": "nonpayable",
			"type": "function"
		}
	]
}